:020000040800F2
:10000000800C002081620008D5590008D7590008EB
:10001000D9590008DB590008DD590008000000002C
:10002000000000000000000000000000DF59000890
:10003000E159000800000000E3590008E5590008F4
:10004000D9620008DD620008E1620008E56200088C
:10005000E9620008ED620008A75B0008F56200088D
:10006000F9620008FD6200080163000805630008EA
:10007000096300080D630008116300081563000898
:10008000196300081D6300082163000800000000D8
:1000900000000000000000000000000025630008D0
:1000A000296300082D6300083163000835630008E8
:1000B000396300083D630008416300084563000898
:1000C000496300084D630008516300085563000848
:1000D000596300085D6300086163000800000000C8
:1000E0006563000869630008B75B00080000000052
:1000F000000000000000000000000000EB220008EB
:10010000000000007563000879630008F32200080E
:1001100000000000000000000000000000000000DF
:100120008163000885630008896300088D63000807
:1001300091630008000000000000000000000000C3
:10014000000000000000000000000000E15B00086B
:10015000996300089D630008A1630008A563000877
:10016000A9630008AD630008000000000000000063
:10017000000000000000000000000000000000007F
:1001800000000000B163000870B584B000240025B1
:10019000002600208DF8040040208DF8050007207F
:1001A0008DF8060000208DF80A0000208DF8080068
:1001B00000208DF8090008208DF8070001A800F044
:1001C000E5FD80208DF8000010208DF80100002052
:1001D0008DF8020000208DF8030000A800F005FE55
:1001E0001E2001F08FFBDFF8280B4FF4FA7101603D
:1001F000E4B2002C4DD1DFF8180B0068002848D07D
:10020000DFF8100B00F0AAFCDFF8080B90ED000AF5
:10021000BDEEC00A10EE100A40B200280AD5DFF881
:10022000F40A90ED000ABDEEC00A10EE100A40B2CA
:10023000454207E0DFF8DC0A90ED000ABDEEC00A97
:1002400010EE105ADFF8CC0A90ED020ABDEEC00A9B
:1002500010EE100A40B200280AD5DFF8B80A90ED77
:10026000020ABDEEC00A10EE100A40B2464207E094
:10027000DFF8A00A90ED020ABDEEC00A10EE106A87
:10028000EDB2062D02DAF6B2062EB1DB0120040033
:10029000AEE7E4B2002C10D0002001F0B3FB002048
:1002A00001F025FC0028FAD0002001F020FC0128F4
:1002B000FAD0002001F0B0FB01E001F037FB7FBD78
:1002C0001FB50024DFF8500A00788DF801000820DF
:1002D0008DF8040000208DF8050007208DF8060039
:1002E00030208DF8070000208DF8080000208DF8E0
:1002F000090010208DF80A0001A801F019FC002067
:100300008DF80C0000208DF80D0003A801F03DFCD5
:10031000102001F056FC012220210DF1010001F016
:1003200069FC0122202100A801F083FC1E2001F0BD
:10033000E9FA01220F2100A801F07BFC9DF80000E2
:10034000D42802D001F0F2FA01E001200400E4B266
:10035000002C10D0002001F055FB002001F0C7FB5D
:100360000028FAD0002001F0C2FB0128FAD00020BA
:1003700001F052FB01E001F0D9FA1FBD00B583B0D6
:1003800001210D2001F0D3FD2020009001208DF8E7
:10039000040000208DF8060000208DF807000220E0
:1003A0008DF8050000A9DFF8740901F031FE202165
:1003B000DFF8680901F090FE0120009001208DF81F
:1003C000040000208DF8060000208DF807000220B0
:1003D0008DF8050000A9DFF8480901F019FE4FF477
:1003E0000070009000208DF8040000208DF80600B9
:1003F00000208DF8070002208DF8050000A9DFF825
:10040000240901F005FE0121DFF8140901F064FE62
:10041000012001F077FA4FF40071DFF8080901F0CC
:100420004CFE002801D101F081FA4FF48060009069
:1004300000208DF8040000208DF8060001208DF8C2
:10044000070002208DF8050000A9DFF8D80801F0A8
:10045000DFFD012001F056FA4FF48061DFF8C40897
:1004600001F02BFE002801D101F060FA0121DFF834
:10047000B00801F02FFE4FF4C050009000208DF81E
:10048000040000208DF8060001208DF807000220EE
:100490008DF8050000A9DFF88C0801F0B9FD4FF4D4
:1004A0000070009001208DF8040000208DF80600F7
:1004B00001208DF8070002208DF8050000A9DFF863
:1004C000640801F0A5FD4FF40071DFF8580801F051
:1004D00003FE012001F016FA4FF40061DFF8440832
:1004E00001F0EBFD002807D04FF48051DFF834080D
:1004F00001F0E3FD002801D101F018FA4FF480501B
:10050000009000208DF8040000208DF806000120E6
:100510008DF8070002208DF8050000A9DFF8040817
:1005200001F076FD4FF40060009001208DF804008A
:1005300000208DF8060001208DF8070002208DF8BC
:10054000050000A9DFF8DC0701F062FD4FF400614F
:10055000DFF8D00701F0C0FD012001F0D3F94FF41E
:100560008051DFF8C00701F0A8FD002801D101F09B
:10057000DDF94FF40060009000208DF804000020A9
:100580008DF8060001208DF8070002208DF8050087
:1005900000A9DFF8900701F03BFD4FF48050009078
:1005A00001208DF8040000208DF8060001208DF850
:1005B000070002208DF8050000A9DFF8680701F0A8
:1005C00027FD4FF48051DFF85C0701F085FD012025
:1005D00001F098F94FF40061DFF8480701F06DFD74
:1005E000002801D101F0A2F94FF400700090012021
:1005F0008DF8040000208DF8060000208DF807001B
:1006000002208DF8050000A9DFF8180701F000FDB1
:100610004FF40071DFF80C0701F05CFD002001F0E1
:10062000F1F94FF4F050009000208DF80400002004
:100630008DF8060001208DF8070002208DF80500D6
:1006400000A9DFF8E00601F0E3FC002001F04FFA1A
:100650000028FAD0002001F04AFA0028FAD1002040
:1006600001F0DAF94FF40071DFF8B80601F034FD5B
:100670002021DFF8A80601F02DFD4FF48061DFF89E
:10068000A40601F01AFD002801D001F04FF94FF443
:10069000C050009000208DF8040000208DF8060066
:1006A00002208DF8070002208DF8050000A9DFF870
:1006B000740601F0ADFC4FF40070009001208DF83D
:1006C000040000208DF8060001208DF807000220AC
:1006D0008DF8050000A9DFF84C0601F099FC4FF4F5
:1006E0000071DFF8400601F0F5FC012001F00AF985
:1006F0004FF40061DFF82C0601F0DFFC002807D082
:100700004FF48051DFF81C0601F0D7FC002801D11E
:1007100001F00CF94FF49050009000208DF8040087
:1007200000208DF8060002208DF8070002208DF8C9
:10073000050000A9DFF8EC0501F06AFC4FF4006049
:10074000009001208DF8040000208DF806000120A3
:100750008DF8070002208DF8050000A9DFF8C40518
:1007600001F056FC4FF40061DFF8B80501F0B2FC6F
:10077000012001F0C7F84FF40071DFF8A80501F07F
:100780009CFC002807D04FF48051DFF8980501F059
:1007900094FC002801D101F0C9F84FF420600090CA
:1007A00000208DF8040000208DF8060002208DF84E
:1007B000070002208DF8050000A9DFF8680501F0A8
:1007C00027FC4FF48050009001208DF80400002099
:1007D0008DF8060001208DF8070002208DF8050035
:1007E00000A9DFF8400501F013FC4FF48051DFF859
:1007F000340501F06FFC012001F084F84FF4007122
:10080000DFF8200501F059FC002807D04FF4006103
:10081000DFF8100501F051FC002801D101F086F845
:100820004FF4C050009000208DF8040000208DF897
:10083000060002208DF8070002208DF8050000A9AF
:10084000DFF8E00401F0E4FB4FF4007000900120B9
:100850008DF8040000208DF8060001208DF80700B7
:1008600002208DF8050000A9DFF8B80401F0D0FBE4
:100870004FF40071DFF8AC0401F02EFC07BD1CB58D
:10088000002401214FF4807001F07EFB01F05AFC3E
:100890004BF680325721022001F085FC002801D060
:1008A00001F044F8DFF8800400210160DFF87804EB
:1008B0005FF440314160DFF8700400218160DFF8AF
:1008C00068044FF47061C160DFF85C0402F0C3F8A3
:1008D000DFF8580402F0B0F8DFF850045FF0007160
:1008E0000160DFF8480401210171DFF840040021B4
:1008F0004171DFF8380400218160DFF83004002105
:100900000161DFF8280402210175DFF82014DFF807
:10091000200402F069F80420009002208DF8050000
:1009200003208DF8040000208DF8070000A9DFF8EF
:10093000F40301F06DFB0820009000A9DFF8E40348
:1009400001F066FBDFF8EC0300210180DFF8E8032B
:1009500000210180002004000221DFF8D40302F00E
:10096000FAF8032301220221DFF8C40302F09AF807
:10097000032302220321DFF8B80302F093F80121D8
:10098000DFF8AC0302F078F8DFF884034FF4FA7173
:100990000160E4B2002C53D1DFF874030068002832
:1009A0004ED0DFF88C0302F0E5F81421DFF8800365
:1009B00002F0E5F8DFF8841308801821DFF87003EF
:1009C00002F0DDF8DFF878130880DFF870030088A4
:1009D000972811DBDFF8680300880A280CDADFF8B3
:1009E00054030088B0F5FA7F06D0DFF8480300888A
:1009F000401CDFF840130880DFF8400300880A2815
:100A000011DADFF83C03008897280CDBDFF82803B5
:100A10000088B0F5FA7F06D0DFF81C030088401C80
:100A2000DFF814130880C3480088B0F5FA7FB0D10E
:100A3000C1480088B0F5FA7FABD101200400A8E7D7
:100A40000021BB4802F018F8E4B2002C01D100F0FC
:100A50006DFF002000F0D6FF002001F048F80028CC
:100A6000FAD0002000F0D8FF13BD30B587B00024C5
:100A7000002501214FF4804001F077FA0121062082
:100A800001F055FA02208DF8040000208DF80600D0
:100A900001208DF8070001208DF805004FF48060DB
:100AA000009000A9A74801F0B3FA05220A21A54841
:100AB00001F01BFB0820009000A9994801F0A8FA5A
:100AC00005220321964801F010FB9F4802F078F8B8
:100AD0004FF47A4004901020ADF80A000020ADF8E1
:100AE0000C000020ADF814004FF44070ADF8080081
:100AF0000020ADF80E0002A9934802F0D7F80121BA
:100B0000914802F0BFF90A2000F0FCFE80484FF443
:100B1000FA710160EDB21E2D18DA7D4800680028D8
:100B200014D00121884802F0D5F9002803D1784873
:100B300000680028F5D1844802F0B2F90400A4B29C
:100B40004FF6FF708442E5D16D1CE3E7EDB21E2D38
:100B500001D000F0EBFE07B030BD000070B52DED08
:100B6000028B86B004000026B7EE008A00AB02229A
:100B70002321322000F05BF901AB0622282132202C
:100B800000F055F99DF80100400602D5402005000F
:100B900001E0102005009DF80000400603D59DF8F7
:100BA0000100400619D500200600F6B2032E2EDA09
:100BB000F6B201A810EB460040780002F6B201A997
:100BC00011F8161001FA80F0EDB290FBF5F0F6B2D4
:100BD00003A921F81600761CE7E700200600F6B20C
:100BE000032E14DAF6B201A810F816000002F6B2CD
:100BF00001A911EB4601497801FA80F0EDB290FBB2
:100C0000F5F0F6B203A921F81600761CE7E700AB71
:100C100002222321322000F00AF99DF8010040064B
:100C200004D5B5EE000AB0EE408A20E09DF8000041
:100C300010F03000C0B2002806D0102809D02028BB
:100C40000CD030280FD012E0B7EE000AB0EE408A88
:100C50000DE0B6EE000AB0EE408A08E0B5EE000AFC
:100C6000B0EE408A03E09FED290AB0EE408A0020F2
:100C70000600F6B2032E10DAF6B203A830F9160019
:100C800000EE100AB8EEC00A80EE080AF6B214EBC5
:100C9000860080ED000A761CEBE706B0BDEC028B07
:100CA00070BD7047002029490988002915D12849BD
:100CB0000988284A32F81110080025490988491C7A
:100CC000234A118022490988302902D12049002273
:100CD0000A801E4901220A8014E01F4909881D4A22
:100CE00032F8111008001C490988491C1A4A118061
:100CF00019490988302902D1174900220A8013496D
:100D000000220A8080B27047000000009FCDAA3DFB
:100D10003C08002004080020F25D0008000C02409E
:100D200000080240000002401C080020EC070020E0
:100D300000200140700800206E0800206A08002092
:100D40006C080020000402400038004074080020B5
:100D500072080020F860000878010020FEE710B457
:100D600050F8041B81B102681218001D50F8043BB2
:100D7000DC0744BFA9F10104E31852F8044B43F81F
:100D8000044B091FF9D1EBE710BC704710B582B0D6
:100D9000040000208DF8010000208DF8000000F014
:100DA000CAFA9DF80100217862781143A2781143B4
:100DB00008438DF801009DF8000021796279114304
:100DC000A2791143E278114308438DF800000DF138
:100DD000010301222021322000F0B9F900AB0122E9
:100DE0002321322000F0B3F913BD10B582B0040006
:100DF00000AB01222121322000F019F89DF80000FB
:100E000010F00C008DF800009DF800002178627849
:100E10001143A2781143E278114308438DF8000092
:100E200000AB01222121322000F091F913BDF0B571
:100E300083B004000D0016001F004FF42040009006
:100E400000F026FA4FF4204000900121DFF8100650
:100E500002F00CF9DFF80C16DFF8040602F041F995
:100E6000002806D10098411E00910028F2D10020F0
:100E70006CE14FF42040009000222100C9B2DFF85D
:100E8000E00502F00FF9DFF8E015DFF8D40502F015
:100E900028F900280BD10098411E00910028F2D1BA
:100EA000DFF8C815DFF8B80502F06BF9CAE70121D1
:100EB000DFF8AC0502F0CCF82900C9B2DFF8A005D4
:100EC00002F009F94FF420400090DFF8A415DFF894
:100ED000900502F006F9002806D10098411E009105
:100EE0000028F2D1002031E1B6B2012E53D1012108
:100EF000DFF86C0502F0BAF8DFF86815DFF8600576
:100F000002F0EFF80028F7D001222100C9B2DFF883
:100F1000500502F0C7F84FF420400090DFF8541558
:100F2000DFF83C0502F00AF900280BD10098411EB9
:100F300000910028F2D1DFF83415DFF8240502F023
:100F400020F9D4E70021DFF8180502F0B6F872B6F0
:100F5000DFF82405008880B201900121DFF8000548
:100F600002F092F862B6DFF8F80402F0D6F8400614
:100F7000F9D5DFF8EC0402F0B1F83870DFF8E004DE
:100F8000008880B28005F9D40121DFF8D40402F092
:100F900094F80120DAE0B6B2022E58D10121DFF830
:100FA000C00402F063F8DFF8BC14DFF8B40402F008
:100FB00098F80028F7D001222100C9B2DFF8A00478
:100FC00002F070F8DFF8980440F6014101804FF418
:100FD00020400090DFF89C14DFF8840402F0AEF8A3
:100FE00000280BD10098411E00910028F2D1DFF8B3
:100FF0007C14DFF86C0402F0C4F8CFE772B6DFF8B7
:101000007804008880B201900021DFF8540402F0D7
:1010100054F862B6DFF8480402F07FF84007F9D5CB
:1010200072B60121DFF8380402F02EF8DFF84C0424
:10103000008838707F1CDFF844040088387062B67E
:10104000DFF81C0440F20141018001207EE04FF4F2
:10105000204000900121DFF8080402F007F8DFF8D3
:101060000414DFF8FC0302F03CF8002806D10098D5
:10107000411E00910028F2D1002067E04FF420408B
:10108000009001222100C9B2DFF8D40302F00AF86F
:10109000DFF8EC13DFF8C80302F023F800280BD1C7
:1010A0000098411E00910028F2D1DFF8C013DFF84C
:1010B000B00302F066F8CAE7B6B2002E3CD0B6B272
:1010C000032E0CD0DFF8980302F027F84007F9D57B
:1010D000DFF88C0302F002F838707F1C761EB6B27F
:1010E000032EE9D1DFF8780302F017F84007F9D5AD
:1010F0000021DFF86C0301F0E0FF72B6DFF8600357
:1011000001F0ECFF38707F1C0121DFF8540301F07F
:10111000BBFFDFF84C0301F0E1FF387062B67F1CC3
:10112000CF4801F0FAFF4006FAD5DFF850030088F7
:10113000387000200600BFE7C948008880B28005EB
:10114000FAD40121C64801F0B8FF0120FEBDF8B570
:1011500004000D0017001E0000F09AF8C9484FF473
:10116000204101600121BE4801F080FFBD49BC481B
:1011700001F0B7FF002808D1C2480068411EC14AEB
:1011800011600028F2D1002081E000222100C9B2C4
:10119000B34801F087FFBB484FF420410160B249DA
:1011A000AF4801F09EFF00280BD1B6480068411EF1
:1011B000B44A11600028F2D1AC49A94801F0E1FF1E
:1011C000CCE7B0484FF4204101602900C9B2A448DF
:1011D00001F081FFA649A24801F083FF002808D151
:1011E000A8480068411EA74A11600028F2D10020DB
:1011F0004DE0BFB2012F1CD1A2484FF42041016045
:101200003178974801F067FF9949954801F069FFE7
:10121000002808D19B480068411E9A4A11600028A6
:10122000F2D1002033E001218D4801F02DFF012093
:101230002DE031788A4801F04EFF761C7F1E380081
:10124000471E80B200280AD0854801F066FF40079B
:10125000FAD53178824801F03EFF761CEFE78948E5
:101260004FF42041016082497D4801F03AFF002897
:1012700008D184480068411E824A11600028F2D1DA
:10128000002004E00121764801F0FEFE0120F2BDBD
:1012900000B587B00121022000F049FE01210220A3
:1012A00000F045FE04220621774800F01EFF0422CC
:1012B0000921754800F019FF4020009002208DF8A8
:1012C000040001208DF8060002208DF805000020A2
:1012D0008DF8070000A96C4800F09AFE4FF40070EA
:1012E000009000A9684800F093FE01215FF400100F
:1012F00000F03BFE0020ADF80C004BF6FF70ADF89F
:101300000E003320ADF810004FF48060ADF81200ED
:101310004FF48040ADF814005C480290504801F052
:10132000E5FD01214E4801F093FE02A94C4801F071
:1013300009FE07B000BD00B589B001215FF40010BF
:1013400000F013FE0121022000F0F1FD0121102028
:1013500000F0EDFD0121102000F0E9FD0121102039
:1013600000F0E5FD04220621474800F0BEFE0422FD
:101370000921454800F0B9FE02208DF80400002044
:101380008DF8060002208DF8070002208DF8050078
:101390004020009000A93C4800F03AFE4FF4007055
:1013A000009000A9384800F033FE00208DF80400BA
:1013B00000208DF8060000208DF8070002208DF82F
:1013C00005000420009000A9314800F021FE022110
:1013D000042001F0DDFE0420029000208DF80C00B6
:1013E00008208DF80D0001208DF80E0002A801F0F4
:1013F000F9FE0020ADF814004BF6FF70ADF81600B2
:101400000020ADF818004FF48060ADF81A004FF4DA
:101410008040ADF81C001D48049004A9104801F05C
:1014200091FD01210E4801F013FE102000900020D4
:101430008DF8040000208DF8060002208DF80500CC
:1014400000208DF8070000A9114800F0E1FD2020E0
:10145000009000A90E4800F0DBFD09B000BD0000BF
:101460000054004001000300820007000004021045
:10147000840007000200001018540040105400407F
:10148000020003006801002000040240A086010061
:101490000010024040B2002809D540B210F00F02FF
:1014A000DFF8C434D2180B0102F8043C04E040B267
:1014B000DFF8B8240B018354704710B50400601E98
:1014C000B0F1807F01D3012011E0601EDFF8A0148D
:1014D00008600F215FF0FF30FFF7DCFFDFF89404B6
:1014E00000210160DFF8900407210160002010BD99
:1014F00000B585B00121002000F0A8FA002000F01E
:101500005FFA012000F05CFA022000F059FA032093
:1015100000F056FA00A800F089FC01986421B0FBA5
:10152000F1F0FFF7CAFF002000F0E1FA012869D1CD
:10153000002000F067FA012000F064FA022000F0B9
:1015400061FA032000F05EFADFF83004006800283A
:101550000FD1DFF82C044FF496710160002000F0E9
:10156000C6FA01281DD1DFF8180400680028F5D15B
:1015700017E0DFF80C044FF496710160002000F0D2
:10158000B6FA012804D1DFF8F80300680028F5D185
:10159000002000F0ACFA002803D1DFF8E4030021BA
:1015A0000160DFF8DC030068002828D1002000F08B
:1015B00033FA012000F030FA022000F02DFA032067
:1015C00000F02AFA002000F092FA0128FAD001F087
:1015D0005BFEFEF7D9FDFEF773FEFEF7CFFEFFF7C9
:1015E0004EF9FFF742FA0021DFF8900301F0BCFE4C
:1015F000002000F01BFA0A2000F084F9F8E700F060
:1016000004F801E000F001F8FEE710B588B000240E
:10161000DFF8700300210170DFF86C030021017016
:10162000002000F0CDF9012000F0CAF9022000F0FE
:10163000C7F9032000F0C4F903A800F0F7FB0498F1
:101640006421B0FBF1F0FFF738FF002000F0E4F96F
:10165000012000F0E1F9022000F0DEF9032000F0A3
:10166000DBF9C9480078002834D1002000F0DEF909
:101670000A2000F047F9012000F0D8F90A2000F014
:1016800041F9022000F0D2F90A2000F03BF90320D2
:1016900000F0CCF90A2000F035F9641CE4B2102CFB
:1016A000DFD100200400E4B2102C10DA002000F09A
:1016B000BDF9012000F0BAF9022000F0B7F90320CB
:1016C00000F0B4F90A2000F01DF9641CEBE70020DB
:1016D0000400C6E7002000F00AFA0128FAD0AA4860
:1016E0000021017000F078F800220021A74802F0E4
:1016F00041F800220421A54802F03CF8002208210C
:10170000A24802F037F800220C21A04802F032F87B
:1017100000208DF8040040208DF8050007208DF88A
:10172000060000208DF80A0000208DF80800002037
:101730008DF8090008208DF8070001A8FFF726FBA7
:101740001E2000F0DFF88F480121017080208DF805
:10175000000010208DF8010000208DF8020000200C
:101760008DF8030000A8FFF740FB894B06222921D2
:101770003220FFF75CFB8748854991F90010017022
:10178000854B06222B213220FFF751FB83488249EB
:1017900091F90010017000F014F87B4800780028DF
:1017A000FBD0002000F0A3F90128FAD000217C48EA
:1017B00001F04EFC7B4802F072F97A4802F01DFFFE
:1017C00026E780B578480090784B794A0121754822
:1017D00002F03EFF002002BD00B58BB001210420C5
:1017E00000F0C3FB0121082000F0A1FB4FF4704082
:1017F000009002208DF8040000208DF806000020E3
:101800008DF8070003208DF8050000A9694800F055
:10181000FFFB02220C21674800F067FC02220D2129
:10182000644800F062FC02220E21624800F05DFC78
:1018300002220F215F4800F058FC5F480068400812
:101840004FF4FA61B0FBF1F0401E5C49088040F2B1
:10185000CF70039059480088ADF808000020ADF81B
:1018600010000020ADF80A0002A9484801F0F4FD7C
:101870000121464801F027FE6020ADF81400012048
:10188000ADF816004FF47A7007900020ADF82000F4
:1018900005A93E4801F033FE002200213B4801F03B
:1018A00069FF0821394801F03FFF05A9374801F0D9
:1018B00065FE00220421354801F05CFF0821334811
:1018C00001F03BFF05A9314801F09EFE00220821EE
:1018D0002E4801F04FFF08212C4801F038FF05A9E0
:1018E0002A4801F0D6FE00220C21284801F042FFD0
:1018F0000821264801F034FF0121244801F0F1FDC0
:101900000BB000BD01B41E48009901601C4800687E
:101910000028FBD101B0704719480068002804D0A6
:1019200017480068401E16490860704780B50221BC
:10193000582001F0B9FC5FF05531104801F014FD5A
:10194000022000F073F80520FFF7DCFFF8E780B510
:101950000C480078002803D1FFF7E8FF002000E0E2
:10196000FEE702BD0000000018ED00E000E400E02A
:1019700014E000E018E000E010E000E0FCFF0308E5
:101980003C0800207608002077080020000800406E
:101990002C08002078080020340800207908002056
:1019A000005400407C010020E4000020780000206A
:1019B000C8000020000C02406C01002068080020D4
:1019C0001CB504000121E4B24F4850F8240000F097
:1019D000AEFAE4B24D4830F81400009001208DF8C2
:1019E000040000208DF8060001208DF80700022079
:1019F0008DF8050000A9E4B2454850F8240000F035
:101A000007FB13BDC0B2424951F82010C0B23F4A93
:101A100032F810200A837047C0B23D4951F82010B7
:101A2000C0B23A4A32F810204A837047C0B23849EF
:101A300051F820104969C0B2344A32F810205140A0
:101A4000C0B2334A52F820205161704730B585B09A
:101A500004000D000121E4B22E4850F8240000F0EB
:101A600066FA01214FF4804000F08EFA00208DF8D4
:101A7000100000208DF81300E4B2274830F814005D
:101A8000039003A9E4B2254850F8240000F0C0FAFE
:101A9000EDB2012D29D1E4B22148215CE4B2214804
:101AA000205C01F075FBE4B21F4830F8140001908F
:101AB00000208DF8080008208DF8090001208DF81D
:101AC0000A0001A801F08EFBE4B21848205C8DF8F2
:101AD00000000F208DF801000F208DF8020001207A
:101AE0008DF8030000A802F038FF05B030BD10B536
:101AF0000400E4B2084830F81410E4B2074850F883
:101B0000240000F0DAFA10BD40620008A862000864
:101B100014010020B0620008565300083401002070
:101B2000BE610008F35D0008D2590008BF610008DB
:101B300010B582B0040000208DF8010000208DF85F
:101B4000000000F099F89DF80100217862781143B7
:101B5000A2781143E278114308438DF801009DF803
:101B60000000217962791143A279114308438DF86D
:101B70000000012220210DF1010000F03BF80122BC
:101B8000232100A800F036F813BD10B582B0040080
:101B90000122212100A800F04CF89DF8000010F06F
:101BA000C0008DF800009DF8000021786278114394
:101BB00008438DF800000122212100A800F01AF846
:101BC00013BD10B582B004000122242100A800F04A
:101BD00030F89DF8000010F0EF008DF800009DF83F
:101BE000000020438DF800000122242100A800F00D
:101BF00001F813BD70B504000D001600B6B2022E38
:101C000001DB55F040050821844800F065FA280002
:101C1000C0B200F0CAF8B6B2002E05D0207800F0AD
:101C2000C4F8761E641CF6E708217C4800F052FADE
:101C300070BD70B504000D001600B6B2022E02DBB6
:101C400055F0C00501E055F080050821734800F00B
:101C500043FA2800C0B200F0A8F8B6B2002E06D0B1
:101C6000002000F0A2F82070761E641CF5E7082121
:101C70006A4800F02FFA70BD00B587B001214FF41B
:101C8000805000F081F90121012000F050F901217C
:101C9000102000F04CF90121102000F048F901213A
:101CA000102000F044F9052205215D4800F01DFADE
:101CB000052206215A4800F018FA05220721584843
:101CC00000F013FA02208DF8040000208DF80600C1
:101CD00002208DF8070002208DF8050020200090DA
:101CE00000A94F4800F094F98020009000A94C48CA
:101CF00000F08EF94020009000A9494800F088F9D2
:101D0000484800F05DFF0020ADF808000020ADF865
:101D10000C000020ADF80E000020ADF810004FF4CC
:101D20000070ADF812001020ADF814000020ADF8DE
:101D300016000720ADF818004FF48270ADF80A00C5
:101D400002A9384800F092FF0121364801F08CF8D2
:101D50000820009001208DF8040000208DF8060076
:101D600002208DF8050000A92C4800F051F9082147
:101D70002A4800F0AFF90120009000208DF80400FF
:101D800000208DF8060002208DF8050000208DF857
:101D9000070000A9214800F03BF90220009000A9AB
:101DA0001E4800F035F907B000BD10B504001E480C
:101DB0004FF48051016002211A4801F08BF800288D
:101DC0000AD119480068411E174A11600028F2D153
:101DD000FFF7BDFDC0B21EE0E4B2210089B2114898
:101DE00001F060F810484FF48051016001210D4866
:101DF00001F070F800280AD10B480068411E0A4A19
:101E000011600028F2D1FFF7A2FDC0B203E005483F
:101E100001F046F8C0B210BD000000000010024002
:101E2000000002400030014064010020F0B40021B5
:101E300000220023022400250226DFF8A8713F6853
:101E400017F00C0739000F00002F04D0042F06D024
:101E5000082F08D03CE0DFF8947107603BE0DFF822
:101E60009071076037E0DFF880713F68C7F38057F3
:101E70003D00DFF874713F6817F03F073E00002D0A
:101E80000DD0DFF86C71B7FBF6F7DFF85CC1DCF85A
:101E900000C0CCF3881C0CFB07F73B000CE0DFF81C
:101EA0004C71B7FBF6F7DFF840C1DCF800C0CCF3AB
:101EB000881C0CFB07F73B00DFF82C713F68C7F369
:101EC00001477F1C7F003C00B3FBF4F7076002E092
:101ED000DFF818710760DFF80C713F6817F0F00742
:101EE00039000909DFF80C71CF5D3A000768D74067
:101EF0004760DFF8F0703F6817F4E0573900890A4F
:101F0000DFF8F070CF5D3A004768D7408760DFF8B0
:101F1000D4703F6817F460473900490BDFF8D4707C
:101F2000CF5D3A004768D740C760F0BC7047C9B280
:101F3000002905D0304A126802432F4B1A6004E092
:101F40002D4A126882432C4B1A607047C9B200298F
:101F500005D02A4A12680243284B1A6004E0274A37
:101F600012688243254B1A607047C9B2002905D018
:101F7000234A12680243224B1A6004E0204A126886
:101F800082431F4B1A607047C9B2002905D01D4A11
:101F9000126802431B4B1A6004E01A4A126882431B
:101FA000184B1A607047C9B2002905D0164A12684A
:101FB0000243154B1A6004E0134A12688243124B25
:101FC0001A607047C9B2002905D0104A126802434E
:101FD0000E4B1A6004E00D4A126882430B4B1A60E4
:101FE0007047000008380240043802400024F40022
:101FF00000127A00240100203038024034380240B8
:102000004038024044380240203802402438024020
:10201000F0B400220023002400252A00102A4AD20E
:10202000012595402B000D681D402C009C4240D19D
:10203000056803261700FFB27F00BE40B543056068
:1020400005680E791700FFB27F00BE40354305607A
:102050000D79012D02D00D79022D1AD18568032644
:102060001700FFB27F00BE40B543856085684E799A
:102070001700FFB27F00BE403543856045680126EA
:102080009640B543456045688E799640B6B2354373
:102090004560C56803261700FFB27F00BE40B54308
:1020A000C560C568CE791700FFB27F00BE403543DA
:1020B000C560521CB2E7F0BC7047020000201369F3
:1020C00089B20B4202D00123180001E0002318005E
:1020D000C0B270470183704741837047D2B2002A73
:1020E00001D0018300E041837047F0B40023002455
:1020F000D2B211F00705EDB2AD0012FA05F52B00D2
:1021000089B2CD1010EB850589B2CE1010EB860692
:10211000366A0F2711F0070C5FFA8CFC5FEA8C0C13
:1021200017FA0CF7BE432E6289B2CD1010EB85056D
:102130002D6A1D432C0089B2CD1010EB85052C6251
:10214000F0BC7047DFF820085FF400110160DFF891
:102150001C08DFF81C180160DFF81808DFF81818F1
:102160000160DFF8180800210160DFF814082F2152
:102170000160DFF810085FF020510160DFF8080807
:102180005FF010510160DFF804085FF00151016059
:10219000DFF8FC075FF008510160DFF8F8075FF037
:1021A00004510160704770B504000D001600EDB2D7
:1021B000652D01DB642106E0EDB2FF2000FB05F098
:1021C000642190FBF1F13200C9B2200080B200F02E
:1021D000A1F8002801D0012002E000F0AAFB0020B5
:1021E00070BD80B5DFF89C070168DFF880070068E4
:1021F00002F037FC002877D0DFF89C070068002841
:102200005ED0DFF86807006802F01FFC0028F8D1F4
:10221000DFF870070168DFF85407006802F040FC3F
:10222000DFF87C07DFF8741709688160DFF868075A
:102230000068B0F5803F03D2DFF85C07006801E07A
:102240004FF6FF70DFF858170861DFF85417DFF812
:102250001C07006802F0C0FB0121DFF810070068CE
:1022600002F0E6FBDFF830070068B0F5803F03D2EC
:10227000DFF82407006801E04FF6FF70DFF81C1755
:10228000096811EB4000DFF814170860DFF8080751
:102290000068B0F5803F03D2DFF8FC06006801E07B
:1022A0004FF6FF70DFF8F0160968081ADFF8E81635
:1022B00008600121DFF8B406006802F0B9FB13E002
:1022C0000021DFF8A806006802F0B2FBDFF8B406D0
:1022D0000168DFF89806006802F0E2FB0021DFF8F1
:1022E000BC060068FEF7DDFC01BD80B5FFF779FF95
:1022F00001BD80B50221DFF8AC0600F0EBFD00283F
:1023000007D0FEF7CFFC010089B2DFF8980600F095
:10231000C9FD01BDF8B504000D001600002700F04E
:1023200085FA00F07AF800F036FA0121022000F078
:1023300086F8C0190700AF21042000F080F8C0190A
:102340000700DFF86406AF2101708121052000F04D
:1023500076F8C01907000421062000F070F8C019B3
:1023600007002800C0B200F02FF89E21022000F0E4
:1023700066F8C019070000210A2000F060F8C019B3
:10238000070004210E2000F05AF8C01907000021B0
:10239000272000F054F8C01907000F211F2000F07B
:1023A0004EF8C01907000A211A2000F048F8C01999
:1023B00007000A211B2000F042F8C0190700300076
:1023C00000F013FA3800F2BD38B504000025E4B27D
:1023D000E72C10DB14F11901C9B2202000F02FF80E
:1023E0004019050014F11901C9B2212000F027F8A5
:1023F000401905000FE014F11901C9B2202000F0C6
:102400001EF84019050014F11901C9B2212000F08D
:1024100016F840190500280032BD80B500221021B1
:10242000DFF88805FFF75AFE44F6FF7000F077FAF0
:1024300001221021DFF87405FFF750FE01BD70B5D1
:1024400004000D000026DFF868055FF496110160B6
:102450005FF40031DFF85C0500F070FE00280BD05F
:10246000DFF84C050068411EDFF8442511600028A4
:10247000EED1FEF773FC8AE00121DFF8380500F0A9
:10248000F5FDDFF82C054FF480510160DFF82815C9
:10249000DFF8200500F025FE00280BD1DFF810053D
:1024A0000068411EDFF8082511600028EED1FEF714
:1024B00055FC6CE000229421DFF8F80400F0F2FDF6
:1024C000DFF8EC044FF480510160DFF8F014DFF81E
:1024D000E40400F006FE00280BD1DFF8D404006805
:1024E000411EDFF8CC2411600028EED1FEF736FC47
:1024F0004DE02100C9B2DFF8BC0400F0ECFDDFF8CC
:10250000B0044FF480510160DFF8B414DFF8A40484
:1025100000F0E7FD00280BD1DFF894040068411EAD
:10252000DFF88C2411600028EED1FEF717FC2EE0B6
:102530002900C9B2DFF87C0400F0CDFDDFF870049B
:102540005FF496110160DFF87C14DFF8680400F096
:10255000F5FD00280BD1DFF858040068411EDFF8B4
:10256000502411600028EED1FEF7F8FBEBE70121C3
:10257000DFF8400400F088FD2000C0B200F008F849
:10258000EDB2A84201D1002600E00126300070BD66
:1025900070B504000025DFF818045FF4961101609F
:1025A0005FF40031DFF80C0400F0C8FD00280BD008
:1025B000DFF8FC030068411EDFF8F42311600028F7
:1025C000EED1FEF7CBFBE5E00121DFF8E80300F0F8
:1025D0004DFDDFF8DC034FF480510160DFF8D813C4
:1025E000DFF8D00300F07DFD00280BD1DFF8C00339
:1025F0000068411EDFF8B82311600028EED1FEF715
:10260000ADFBC7E000229421DFF8A80300F04AFDEB
:10261000DFF89C034FF480510160DFF8A013DFF86E
:10262000940300F05EFD00280BD1DFF884030068FE
:10263000411EDFF87C2311600028EED1FEF78EFBEF
:10264000A8E02100C9B2DFF86C0300F044FDDFF818
:1026500060034FF480510160DFF86813DFF8540322
:1026600000F06CFD00280BD1DFF844030068411E28
:10267000DFF83C2311600028EED1FEF76FFB89E004
:102680000121DFF8300300F0F1FCDFF824034FF400
:1026900080510160DFF82013DFF8180300F021FDFE
:1026A00000280BD1DFF808030068411EDFF8002383
:1026B00011600028EED1FEF751FB6BE0012294215E
:1026C000DFF8F00200F0EEFCDFF8E4024FF4805196
:1026D0000160DFF8F412DFF8DC0200F02FFD0028C3
:1026E0000BD1DFF8CC020068411EDFF8C422116074
:1026F0000028EED1FEF732FB4CE00021DFF8B402F7
:1027000000F0DBFCDFF8C40206880121DFF8A40238
:1027100000F0BAFCDFF898024FF480510160DFF856
:10272000B012DFF8900200F009FD00280BD1DFF8AD
:1027300080020068411EDFF8782211600028EED187
:10274000FEF70CFB26E0DFF86C0200F0C7FC05008A
:10275000DFF85C024FF480510160DFF85802008816
:1027600080050BD5DFF848020068411EDFF84022E3
:1027700011600028F1D1FEF7F1FA0BE00121DFF83A
:10278000340200F09AFCDFF84C12DFF8280200F067
:10279000F8FC280070BD00B585B001215FF4001081
:1027A000FFF7E3FBDFF80C0200F0A0FB0020ADF820
:1027B00004004BF6FF70ADF806003320ADF80800BA
:1027C0004FF48060ADF80A004FF48040ADF80C0083
:1027D000DFF8040200900121764800F039FC00A9DE
:1027E000744800F0AFFB05B000BD1FB50400012127
:1027F0004FF40040FFF7B9FB6A4800F0E1F902949A
:102800000020ADF802000020ADF804000020ADF873
:102810000C004FF40070ADF800004FF40070ADF8FC
:10282000060000A95F4800F041FA1FBD00B583B063
:1028300001210820FFF77BFB1020009001208DF87C
:10284000040002208DF8050000208DF8060000200D
:102850008DF8070000A95548FFF7DAFB0121072092
:10286000FFF765FB4FF41070009002208DF8040014
:1028700002208DF8050001208DF8060000208DF85B
:10288000070000A95548FFF7C3FB0422062153485F
:10289000FFF72BFC042209215048FFF726FC4FF4D8
:1028A000A050009002208DF8040002208DF8050051
:1028B00000208DF8060000208DF8070000A9484888
:1028C000FFF7A6FB062204214648FFF70EFC06226E
:1028D0000A214348FFF709FC1020009000A9414855
:1028E000FFF796FB06220C213D48FFF7FEFB8020F8
:1028F000009002208DF8040002208DF805000020D1
:102900008DF8060000208DF8070000A93448FFF775
:102910007FFB062207213248FFF7E7FB07BD01B422
:102920000098002803D00098401E0090F8E701B0FE
:10293000704780B533208DF8000000208DF801002D
:1029400000208DF8020001208DF8030000A802F09D
:1029500004F801227121134800F0A6FA0121114860
:1029600000F090FA01BD0000400100204401002069
:10297000B8600240480100200C3C004044080020A0
:102980004C0100205001002054010020580100207B
:102990005C01002060010020380100204008002078
:1029A000B0070020003C00407A080020000C0240E4
:1029B0003C01002000540040010003008200070099
:1029C00080000700040000100200001018540040AE
:1029D0004000001000040010A08601000004024026
:1029E000000802400000024030B400230022446886
:1029F0002300284C23400C790D6855EA0424234316
:102A0000436084682300244C23400C69CD682C4328
:102A10008D682C434D7954EA450423438360C46A8E
:102A2000230033F470030C7D641E2243D2B253EAB8
:102A30000253C36230BC7047002101600021017164
:102A400000214171002181600021C16000210161EC
:102A50000121017570470021104A12681100104AC7
:102A60001140026843681A4383681A43C3681A43D3
:102A700011430A4A11607047C9B2002904D0826824
:102A800052F00102826003E08268520852008260C4
:102A900070470000FFFEFFFCFDF7FFC0042301406C
:102AA000E030FCFFF0B5002600240025C9B20A2959
:102AB00019DBC7683E000727B1F10A0C5FF0030E6F
:102AC0001CFB0EFC17FA0CF73C00A643DBB2B1F17D
:102AD0000A075FF0030C17FB0CF713FA07F73C002B
:102AE0002643C66013E007693E0007275FF0030C2A
:102AF00011FB0CFC17FA0CF73C00A643DBB20327D2
:102B000011FB07F713FA07F73C0026430661876BB2
:102B10003E00C6F301573D001F27D2B212F1030C4D
:102B2000BCEB050CBCF1010C5FF0050E1CFB0EFCB0
:102B300017FA0CF73C00A643C9B2D2B2D71C7F1BD0
:102B40007F1E5FF0050C17FB0CF711FA07F73C002E
:102B500026438663F0BD10B400220023846B22005C
:102B600032F44012C9B24C1E230052EA035282636F
:102B700010BC7047816851F480018160704781B05A
:102B800002000020009000920098C9B211F12803C1
:102B9000181800900098006880B201B0704750F893
:102BA000041B61B150F8042BD30744BFA9F1010302
:102BB0009A18002342F8043B091FFAD1EFE7704747
:102BC00010B504009E4884420AD101214FF4805080
:102BD000FFF7F8F900214FF48050FFF7F3F944E0D4
:102BE000984884420AD101214FF48040FFF7DBF975
:102BF00000214FF48040FFF7D6F936E09248844236
:102C00000AD101214FF40040FFF7CDF900214FF424
:102C10000040FFF7C8F928E08C4884420AD101211E
:102C20004FF40050FFF7CEF900214FF40050FFF7AA
:102C3000C9F91AE0864884420AD101215FF4801064
:102C4000FFF7C0F900215FF48010FFF7BBF90CE03B
:102C50008048844209D101215FF40010FFF7B2F9E6
:102C600000215FF40010FFF7ADF910BD10B4002291
:102C700003881A0012F441520B884C8823438C8835
:102C80002343CC8823430C8923434C8923438C89D9
:102C90002343CC8923431A430280838B4FF2FF7472
:102CA000234083830B8A038210BC70472DE9F84FC1
:102CB0005FF0000802225FF0000E01235FF0000CBD
:102CC0000024002500260027B0F81C904FF2400A8F
:102CD0001AEA0909A0F81C905FF00209A0F82090F8
:102CE000B0F81C90C846D1F80890B9F1020F06D18F
:102CF0005FF00009CE465FF002094A4671E0B1F884
:102D00000490B9F1000F03D15FF001094B4602E0D6
:102D10005FF002094B46DFF84091D9F800905FEA76
:102D2000092909D5DFF83091D9F8009039F4000964
:102D3000DFF824A1CAF80090DFF82091D9F80090BC
:102D4000C9F388194E46DFF81491D9F80090C9F3F9
:102D500002794F46DFF80891D9F8009019F03F0941
:102D60004D46DFF80091B9FBF5F906FB09F9B9FB0F
:102D7000F7F94C46B1F80690B9F5007F0FD15FEA3C
:102D800014295FF00A0A0AFB09F9D1F808A0B9FB77
:102D9000FAF919F105091FFA89F9CC4611E09BB23D
:102DA0005FEA4319B4FBF9F95FF00A0A0AFB09F973
:102DB000D1F808A0B9FBFAF919F105091FFA89F948
:102DC000CC465FF00A09BCFBF9FC1CF00109CE46B9
:102DD0001FFA8EFEBCEB0E095FEA59094A465FEA0C
:102DE0000E2E92B2022A02DB92B2FF2A05DD5FF0BC
:102DF00002094A465FF00009CE46B1F8069059EA4A
:102E00000E0959EA0209A0F82090CDF80080B1F827
:102E10000080B1F80290B1F804B0B1F80CA05AEA01
:102E20000B0A5AEA090959EA080858F40069DDF85A
:102E3000008059EA0808A0F81C80BDE8F18F000066
:102E40000030014000380040003C004000340140A8
:102E500000500140005401400838024084380240CC
:102E60000438024000127A00C9B2002904D0028856
:102E700052F04002028004E002884FF6BF731A400D
:102E800002807047C9B2002904D0828B52F480625C
:102E9000828304E0828B4FF6FF331A4082837047AF
:102EA000808970478181704730B400230024C9B203
:102EB0000D09EDB22B0001259D402C00D2B2002A55
:102EC00003D085882543858002E08588A5438580D9
:102ED00030BC70470200002013890B4202D001234E
:102EE000180001E000231800C0B2704710B50400BC
:102EF000514884420AD101215FF40010FFF753F8D2
:102F000000215FF40010FFF74EF81AE04B488442AE
:102F10000AD101215FF48000FFF745F800215FF43A
:102F20008000FFF740F80CE04548844209D10121B8
:102F30005FF40000FFF737F800215FF40000FFF7AF
:102F400032F810BD2DE9F04385B004000D005FF0AC
:102F5000000900260427DFF8EC80A08881464FF6A0
:102F6000C07010EA090900A8FEF760FF02988046C9
:102F70003548B8FBF0F0060056EA0909A4F80490B9
:102F800020884FF6FE710840208000208146286886
:102F90002E4988420ED228684000B8FBF0F00700A6
:102FA000BFB2042F01DA0420070057EA0909701C98
:102FB000208426E0E8884BF6FF71884206D1286815
:102FC00003214843B8FBF0F0070007E02868192107
:102FD0004843B8FBF0F0070057F48047380501D1AB
:102FE00057F0010757F4004050EA0909B6B24FF410
:102FF000967000FB06F04FF47A7190FBF1F0401CE4
:103000002084A4F81C90208850F0010020802088A3
:1030100081464FF6F53010EA0909A8886989084306
:1030200050EA0909A4F80090A88929890843208159
:1030300005B0BDE8F0830000005400400058004097
:10304000005C004000127A0040420F00A18601009F
:10305000C9B2002904D0028852F00102028004E0C3
:1030600002884FF6FE731A4002807047C9B20029E9
:1030700004D0028852F48072028004E002884FF685
:10308000FF631A4002807047C9B2002904D0028849
:1030900052F40072028004E002884FF6FF531A4097
:1030A00002807047D2B2002A02D051F0010101E043
:1030B00011F0FE01C9B201827047C9B2002904D0E3
:1030C000028852F48062028004E002884FF6FF33E7
:1030D0001A4002807047C9B201827047008AC0B2AC
:1030E000704770B402000023002400250020968A57
:1030F0003400168B35002D0455EA04063602360AD4
:10310000330011EA03068E4202D10126300001E0AD
:1031100000263000C0B270BC704710B4010000201F
:10312000002200238C8A22000C8B23001B0453EA0C
:1031300002042402240A200010BC704782B002005E
:103140000020002301930023009300920B0F0193B2
:103150000902090A019B002B03D0009B1433009342
:1031600003E0090C009B18330093009B1B680B4283
:1031700002D00123180001E000231800C0B202B001
:10318000704700220B021B0A1A00D3438382704748
:1031900030B400220F2311F00304E4B2A400A340D2
:1031A0001A00C9B28B100E4C54F823309343C9B2A5
:1031B0008C100B4D45F82430C9B28B10084C54F8D4
:1031C0002330C0B211F00304E4B2A40010FA04F4F6
:1031D0002343C9B28C10024D45F8243030BC7047EF
:1031E000083801400021234A11008279002A36D094
:1031F000204A126803689A431E4B1A601E4A1268DE
:1032000003689A431C4B1A60027989180A6803689C
:103210001A430A60194A126803689A43174B1A60E6
:10322000174A126803689A43154B1A604279102AAC
:103230000CD1124A126803681A43104B1A60104AE4
:10324000126803681A430E4B1A600EE0094A110017
:10325000427989180A6803681A430A6005E002790E
:1032600089180A6803689A430A607047054908602C
:1032700070470000003C0140043C0140083C014014
:103280000C3C0140143C0140DFF89001006800282C
:1032900009D5DFF88C01DFF88C110160DFF88001BF
:1032A000DFF8841101607047F8B504000D000026B6
:1032B0000927EDB2002D02D10020060010E0EDB28A
:1032C000012D03D14FF48070060009E0EDB2022D0C
:1032D00003D14FF40070060002E04FF44070060086
:1032E00000F0A6F80700FFB2092F3AD1DFF82C0151
:1032F000006830F44070DFF824110860DFF81C012A
:1033000000683043DFF814110860DFF8100100682E
:1033100030F0F800DFF804110860DFF80001006801
:1033200054F002010843DFF8F4100860DFF8EC0005
:10333000006850F48030DFF8E410086000F078F89E
:103340000700DFF8D800006830F00200DFF8CC108A
:103350000860DFF8C800006830F0F800DFF8BC1043
:1033600008603800C0B2F2BD70B504000D00092637
:1033700000F05EF80600F6B2092E23D1DFF89C00BB
:10338000006830F44070DFF894100860DFF88C00BB
:10339000006850F40070DFF884100860DFF87C00EB
:1033A000006850F00100DFF874100860256000F03C
:1033B0003FF80600DFF86400006840084000DFF8CE
:1033C0005C1008603000C0B270BD09201749096860
:1033D000C90302D5012108001EE014490968C90685
:1033E00002D50621080017E010490968C90502D571
:1033F0000221080010E00D49096811F0EF0F02D01A
:103400000721080008E009490968890702D5082151
:10341000080001E009210800C0B27047103C0240DA
:10342000043C024023016745AB89EFCD0C3C0240D0
:1034300080B509208DF80000FFF7C7FF8DF8000068
:103440009DF80000012804D1FFF7BFFF8DF80000B0
:10345000F6E79DF8000002BD002203881A00A74B82
:1034600098420ED0AB4B98420BD0B0F1804F08D0B1
:10347000A34B984205D0A34B984202D0A24B98424E
:1034800004D14FF68F731A404B881A439F4B9842D2
:1034900007D09F4B984204D04FF6FF431A400B8948
:1034A0001A4302804B68C3620B880385934B984292
:1034B00002D0984B984201D18B7A038601238382F4
:1034C0007047C1627047C9B2002904D0028852F027
:1034D0008002028004E002884FF67F731A40028067
:1034E0007047C9B2002904D0028852F0010202805C
:1034F00004E002884FF6FE731A400280704770B4F1
:10350000002300240022058C4FF6FE76354005840A
:10351000058C2C0085882A00058B2B004FF68F75B3
:103520002B404FF6FC752B400D882B434FF6FD7555
:103530002C408D892C434D882C43704DA84202D0DD
:10354000744DA84213D14FF6F7752C40CD892C430A
:103550004FF6FB752C408D882C434FF6FF652A40B3
:103560004FF6FF552A400D8A2A434D8A2A4382800E
:1035700003838D684563048470BC704770B4002376
:1035800000240022058C4FF6EF7635400584058C2B
:103590002C0085882A00058B2B0048F6FF752B40F0
:1035A0004FF6FF452B400D8853EA05234FF6DF7594
:1035B0002C408D8954EA05144D8854EA05144F4D6A
:1035C000A84202D0534DA84217D14FF67F752C4028
:1035D000CD8954EA05144FF6BF752C408D8854EA06
:1035E00005144FF6FF352A404FF2FF752A400D8A29
:1035F00052EA85024D8A52EA8502828003838D68F1
:103600008563048470BC704770B4002300240022DA
:10361000058C4FF6FF6635400584058C2C008588A7
:103620002A00858B2B004FF68F752B404FF6FC75CB
:103630002B400D882B434FF6FF552C408D8954EAC3
:1036400005244D8854EA05242C4DA84202D0314D62
:10365000A84217D14FF2FF752C40CD8954EA0524BA
:103660004FF6FF352C408D8854EA05244EF6FF7541
:103670002A404DF6FF752A400D8A52EA05124D8AFE
:1036800052EA0512828083838D68C563048470BC0E
:10369000704770B4002300240022058C4EF6FF769C
:1036A00035400584058C2C0085882A00858B2B00ED
:1036B00048F6FF752B404FF6FF452B400D8853EA27
:1036C00005234DF6FF752C408D8954EA05344D884D
:1036D00054EA0534094DA84202D00E4DA84205D146
:1036E0004BF6FF752A400D8A52EA85128280838349
:1036F0008D680564048470BC7047000000000140C0
:103700000004004000080040000C00400010004091
:10371000001400400004014041637047816370471A
:10372000C1637047016470470022038B1A004FF693
:10373000F7731A400A43028370470022038B1A0072
:103740004FF2FF731A4052EA0122028370470022AF
:10375000838B1A004FF6F7731A400A43828370472F
:103760000022838B1A004FF2FF731A4052EA0122A3
:103770008283704730B4002301248C402300048CE2
:103780009C430484048C92B212FA01F52C43048405
:1037900030BC7047F8B504000D002900C9B2200004
:1037A00000F005FA012084F81201002084F81401C9
:1037B000002006006078864213D2282000FB0640D5
:1037C00010F58E700700012078703E70FE8000209A
:1037D000F8704020B8600020F86000207861761C06
:1037E000E8E7002006006078864213D2282000FB1C
:1037F000064010F55D700700002078703E70FE8076
:103800000020F8704020B8600020F8600020786147
:10381000761CE8E7200000F0B1FA200000F038FA4A
:103820000021200000F002FB200000F040FB2000FF
:1038300000F095FAF1BD2DE9F04104000D001600ED
:103840001F00EDB2280609D5EDB215F07F00282142
:1038500001FB004010F58E70804608E0EDB215F0D7
:103860007F00282101FB004010F55D70804615F0B7
:103870007F0088F80000C5F3C01088F80100B6B2D8
:10388000C8F8086088F8037098F80100002803D091
:1038900098F80000A8F80600FFB2022F02D100201D
:1038A00088F804004146200000F041FC0020BDE8FB
:1038B000F08170B504000D00EDB2280609D5EDB217
:1038C00015F07F00282101FB004010F58E700600E6
:1038D00008E0EDB215F07F00282101FB004010F553
:1038E0005D70060015F07F003070C5F3C010707079
:1038F0003100200000F058FC002070BD2DE9F0419F
:1039000004000D0016001F00EDB215F07F00282105
:1039100001FB004010F55D708046C8F80C60BFB236
:10392000C8F814700020C8F81800002088F80100BA
:1039300015F07F0088F80000E078012801D1C8F870
:10394000106098F80000002804D14146200000F0E3
:103950001DFD03E04146200000F052FC0020BDE8C0
:10396000F0812DE9F04104000D0016001F00EDB2BA
:1039700015F07F00282101FB004010F58E70804675
:10398000012088F8010015F07F0088F80000C8F8D1
:103990000C60C8F810600020C8F81800C8F814704F
:1039A00098F80000002804D14146200000F0EEFC09
:1039B00003E04146200000F023FC0020BDE8F08138
:1039C00070B504000D00EDB2280609D5EDB215F072
:1039D0007F00282101FB004010F58E70060006E0F4
:1039E000EDB2282000FB054010F55D7006000120B7
:1039F000B07015F07F003070C5F3C010C0B210F089
:103A0000010070703100200000F056FD002070BDF4
:103A100070B504000D00EDB2280609D5EDB215F021
:103A20007F00282101FB004010F58E70060006E0A3
:103A3000EDB2282000FB054010F55D700600002067
:103A4000B07015F07F003070C5F3C010C0B210F038
:103A5000010070703100200000F053FD002070BDA7
:103A600038B504000D00EDB2280606D5EDB215F00C
:103A70007F01200000F091F902E0200000F0B1F990
:103A8000002032BD10B400231A00C9B261F30A123B
:103A900003691B6813430469236010BC704738B581
:103AA000040020694068050055F002052069456062
:103AB000032001F08EF831BD00221100C2685FF0D2
:103AC000FF335360C2687FF08043536151F000417F
:103AD00051F40061C2689161704770B582B0040012
:103AE0000025002600200090032001F066F8E06821
:103AF00000690090761CCB48864201D300201BE071
:103B00000098C00F0028EFD000200600009850F069
:103B100001000090E06800990161E0680069009090
:103B2000761CC048864202D20098C007F5D4032014
:103B300001F043F82800C0B276BDF0B504000020C3
:103B4000E578002D1BD1002500269BB213F1030C54
:103B50005FF0040E9CFBFEFC6546D2B214EB820CB7
:103B6000DCF8D0C067465FF0000C6646AE4206D275
:103B7000D1F800C0C7F800C0761C091DF6E7C0B236
:103B8000F0BD70B403000800002192B2D41C0425DB
:103B900094FBF5F4D3F8D05000263100A14204D2B2
:103BA0002E680660491C001DF8E770BC704770B4B1
:103BB0000200002400200025D570012595704025C5
:103BC0009580C9B201290ED15FF0A0452C000125D6
:103BD000D57208251570042555704FF4A075D58051
:103BE000022515720DE0C9B200290AD18E4D2C00B4
:103BF0000025D5720C251570062555704FF4A0656B
:103C0000D580D46014F50065156100252B0055782A
:103C1000AB420FD212EB830514EB431616F5106678
:103C2000AE6112EB830514EB431616F530666E6534
:103C30005B1CECE714F58065556114F58865C2F8E6
:103C4000CC5000252B001578AB4209D212EB83052E
:103C500014EB431616F5A066C5F890605B1CF2E7FE
:103C600000252B001578AB420BD212EB83054FF4E5
:103C7000805606FB034616F58056C5F8D0605B1CDF
:103C8000F0E714F56065C2F80C51C0B270BC704723
:103C90002DE9F04104000025002006000020070067
:103CA00000208046207A012829D1E068806B070037
:103CB00037F48037607A002801D057F48017E06825
:103CC000876300200600E068C068060036F0400602
:103CD00036F4800636F4003636F40026E068C66016
:103CE0002000FFF7FAFEE078012826D1052060F3D6
:103CF000440858F02008E068C0F808801DE0E0683B
:103D0000C068060056F04006E068C6602000FFF775
:103D1000E4FE0020070057F4803757F4802757F45B
:103D2000002757F40017607A002801D057F4801755
:103D3000E0688763142000F04CFFE07801280AD186
:103D4000E06880688046052060F3440858F0200849
:103D5000E068C0F808802800C0B2BDE8F08110B467
:103D60000100002000231A0052F00102CB689B687A
:103D70001343CC68A360C0B210BC704710B40100FC
:103D8000002000231A0052F00102CB689B68934385
:103D9000CC68A360C0B210BC7047F8B504000D0039
:103DA0000026002700200090009850F0200000908E
:103DB000009865F38A100090E06800990161E0685E
:103DC000006900907F1C1748874204D20098C0F316
:103DD00040100028F3D1032000F0EFFE3000C0B205
:103DE000F2BD70B582B004000025002600200090CE
:103DF000009850F010000090E06800990161E068C0
:103E000000690090761C0748864204D20098C0F3EF
:103E100000100028F3D1032000F0CFFE2800C0B22C
:103E200076BD0000410D030000000440F8B5040019
:103E30000D000026E068C068070037F0005737F033
:103E40008047EDB2012D02D157F0005704E0EDB2EA
:103E5000002D01D157F08047E068C760322000F0A4
:103E6000B8FE3000C0B2F2BDC068406910F0010079
:103E7000704710B504002000FFF7F6FF012801D0BD
:103E8000012000E00020C0B210BD01000020CA687F
:103E900052691000CA6892691040704703691B6834
:103EA0001A00C9B261F3010203691A6070472DE973
:103EB000F84F040000208DF80000002005000020CD
:103EC0008146002082460020834600200700D4F867
:103ED0000C010021016020690068814639F4C05955
:103EE0002069C0F80090E07A01282CD1032120003D
:103EF000FFF7D4FFE06880214162402060F31F4A51
:103F0000802060F30F0AE068C0F828A01AEB1A407E
:103F100060F30F0B802060F31F4BE068C0F804B122
:103F20001BEB1B40C0EA0B0B1FFA8BFBE068C0F8D1
:103F300008B11BEB1B4080B250F0000B1FFA8BFB4B
:103F4000E068C0F80CB110212000FFF726FF200028
:103F5000FFF747FF206900210161206900214161CD
:103F600020695FF0FF31816120690021C16100207B
:103F700006006078864220D214EB860080690068D3
:103F80000500E80F002806D00020050055F0804508
:103F900055F0006501E00020050014EB8600806903
:103FA000056014EB860080690021016114EB860036
:103FB0008069FF218160761CDBE7002006006078C5
:103FC000864220D214EB8601496D09680800C10FB2
:103FD000002906D00021080050F0804050F0006019
:103FE00001E00021080014EB8601496D086014EB24
:103FF0008601496D00220A6114EB8601496DFF229A
:104000008A60761CDBE70020070057F48077206980
:104010000069B843384321690861E078012810D16C
:104020000020804658F0010858F00208402060F354
:104030008A0858F48038402060F359482069C0F855
:104040003080200000F004F89DF80000BDE8F28FF9
:1040500070B50400002500200600E06800218161A1
:10406000E0687FF0804141612000FFF725FDE078A6
:10407000002801D156F0100656F4006656F480561A
:1040800056F4005656F4802656F4002656F00806DC
:1040900056F4801656F40016E0688069B043304349
:1040A000E16888612800C0B270BD010000200B6982
:1040B0009B681A00530813F00303002B05D0022B52
:1040C00009D005D3032B03D007E00323180004E035
:1040D0000223180001E001231800C0B2704770B439
:1040E0000100002000252C000D69AD682A008D69B3
:1040F0002D682B00550815F00305002D04D0022D66
:1041000005D001D3032D05D1DB0ADB0202E0032534
:1041100065F30A038D692B6054F480740D696D6832
:10412000A54325430E697560C0B270BC7047F0B4FA
:104130000200002000263300002634004E78012EB5
:104140000BD10E7812EB8606B6693500012691F97F
:104150000070BE4066F30F040AE00E7812EB86068C
:10416000766D3500012691F90070BE4066F31F445C
:104170002E683300C3F3C036002E0DD18E6866F36F
:104180000A03CE7866F39343CE8866F3995353F0CF
:10419000805353F400432B601669F6692643176970
:1041A000FE61C0B2F0BC7047F0B4020000200026EF
:1041B0003300002634004E78012E0BD10E7812EB1E
:1041C0008606B6693500012691F90070BE4066F397
:1041D0000F040AE00E7812EB8606766D3500012694
:1041E00091F90070BE4066F31F4433F400432B6026
:1041F0001669F669A6431769FE61C0B2F0BC704744
:104200002DE9F04704000D0000265FF000090020B2
:10421000070000208246687801286BD1287814EBCB
:104220008000806900680700287814EB80008069AE
:10423000006982466869002807D15FEADA4A5FEAC6
:10424000CA4A012060F3DC4A11E0686960F3120A8F
:104250006869A9680818401EA968B0FBF1F060F30E
:10426000DC4AE878012802D1012060F35E7A2878E0
:1042700014EB80008069C0F810A0E078012806D116
:10428000287814EB800080692969416110E0E878A2
:1042900001280DD0686900280AD0012095F9001086
:1042A000884081462069406B59EA000021694863D3
:1042B000E87801280AD12069806880465FEAC85002
:1042C00002D457F0005701E057F0805757F080674D
:1042D00057F00047287814EB800080690760E87881
:1042E00001284FD16B699BB22A78E9682000FFF75B
:1042F00024FC47E0287814EB8000406D006807003C
:10430000287814EB8000406D0069824668690028B7
:1043100006D1A86860F3120A012060F3DC4A0EE0BF
:104320006869A9680818401EA968B0FBF1F060F33D
:10433000DC4ACAF3C940A968484360F3120A2878E6
:1043400014EB8000406DC0F810A0E078012805D182
:10435000287814EB8000406D29694161E8780128D4
:1043600007D16879002802D057F0005701E057F0D4
:10437000805757F0806757F00047287814EB80008B
:10438000406D07603000C0B2BDE8F087FCB40200A9
:104390000020002500263300002600964E78012ECE
:1043A00049D19669340026683300266900964E6923
:1043B000002E09D1009EF609F60100960126009F05
:1043C00066F3D447009715E08E684F69BE4207D266
:1043D0008E684E618E68009F66F30607009704E0C2
:1043E0004E69009F66F3060700970126009F66F35B
:1043F000D4470097009E2661D678012E05D10E780D
:1044000012EB8606B6690F69776153F0806353F04B
:1044100000432360D678002E4BD14E69002E48D041
:10442000012691F90070BE4035431669766B2E4324
:1044300017697E633DE00E7812EB8606766D36686E
:1044400033000E7812EB8606766D366900964E695B
:10445000002E0AD18E68009F66F30607009701269A
:10446000009F66F3D44700970BE08E684E618E681C
:10447000009F66F3060700970126009F66F3D44766
:1044800000970E7812EB8606766D009F3761D6781E
:10449000012E05D10E7812EB8606766D0F697761D5
:1044A00053F0806353F000430E7812EB8606766D6E
:1044B0003360C0B2F6BC704730B402000020002563
:1044C0002C004D78012D0FD10D7812EB8505AD69CB
:1044D0002B001D682C00E50F002D01D054F0804406
:1044E00054F400141C6009E00D7812EB85056D6D25
:1044F0002B001D682C0054F400141C60C0B230BCAA
:10450000704730B40200002000252C004D78012DAA
:1045100005D10D7812EB8505AD692B0004E00D780F
:1045200012EB85056D6D2B001D682C0034F4001412
:10453000CD78032D02D0CD78022D01D154F08054D6
:104540001C60C0B230BC704701000A69926910005B
:104550000A69D2691040000C70470200C9B212EB20
:1045600081035B6D9B68180013695B691840704795
:1045700001000A69926910000A69D269104080B28C
:10458000704782B000210091009951F040410091A4
:104590000121009A61F3D44200921821009A61F33C
:1045A00006020092416D009A0A61C17801290FD17B
:1045B00000221100426D00F2CC535361426D12682B
:1045C000110051F000415FF080221100426D116036
:1045D00002B07047817A00290ED003699B681900E8
:1045E000CB0709D5D0F80C311A0032F0020252087C
:1045F0005200D0F80C311A60704738B50400012021
:1046000084F8120100200500607885420BD214EB7B
:1046100085008069FF21816014EB8500406DFF21DA
:1046200081606D1CF0E72069002101612069002193
:10463000416120690021C16120695FF0FF31816122
:104640002000FFF7CEFB10212000FFF7A6FB31BDB5
:104650002DE9F04104000D0016001F00DDF8188060
:10466000200000F039FA200000F014F8C4F8E475D6
:10467000C4F8E885C4F8EC652900C9B22000FFF74A
:1046800089F8D4F8E80500688047200000F07EFA39
:10469000BDE8F0810100002070471CB5040000A9AE
:1046A000200000F0A0FD9DF8000010F01F00C0B237
:1046B000002803D002280BD005D30EE000A920006B
:1046C00000F090FA10E000A9200000F0C9FA0BE019
:1046D00000A9200000F0EBFA06E09DF8000010F0C1
:1046E00080012000FFF76CF9002016BD70B50400B2
:1046F0000D00EDB2002D34D114F55D70060094F874
:10470000110103283DD1B068F169884217D2F069E0
:10471000B168401AF061E078012803D1B068F1680F
:104720004018F060F069B168884201D2F26900E097
:10473000B26892B2F168200000F0DAFD21E0D4F80E
:10474000E4050069002808D094F81201032804D178
:104750002000D4F8E41509698847200000F0D7FD4F
:104760000FE0D4F8E405806900280AD094F812011B
:10477000032806D12900C9B22000D4F8E4259269A3
:104780009047002070BD70B504000D00EDB2002D03
:1047900050D114F58E70060094F8110102283ED114
:1047A000B068F169884211D2F069B168401AF061CD
:1047B000E078012803D1B068F1684018F060F26930
:1047C00092B2F168200000F084FD28E0306AB16800
:1047D000B0FBF1F201FB120000280FD1306AB16882
:1047E00088420BD3306A716A884207D200220021C6
:1047F000200000F06EFD0020706210E0D4F8E405A7
:10480000C068002808D094F81201032804D12000C1
:10481000D4F8E415C9688847200000F08AFD94F8B0
:104820001601012816D1200000F016F8002084F8A7
:1048300016010FE0D4F8E405406900280AD094F886
:104840001201032806D12900C9B22000D4F8E425BA
:1048500052699047002070BD01000869024A126841
:1048600042600020704700004C08002010B5040092
:104870000023402200212000FEF7DDFF002340221C
:1048800080212000FEF7D7FF012084F81201A078D4
:10489000D4F8E81549688847002010BD10B5040019
:1048A000D4F8E8050069804794F8130184F81201F0
:1048B000032084F81201002010BD10B5040094F804
:1048C000120184F81301042084F81201D4F8E805D9
:1048D000C0688047002010BD10B50400D4F8E4057E
:1048E000C069002804D02000D4F8E415C9698847BD
:1048F000002010BD38B504000D002900C9B2200009
:10490000D4F8E42512689047D4F8E8058068804719
:10491000002032BD38B504000D002900C9B22000C6
:10492000D4F8E42552689047002032BD10B5040049
:104930002000D4F8E415096A8847002010BD10B59E
:1049400004002000D4F8E415496A8847002010BD0F
:104950001C4901431C4A11607047F0B40023002138
:104960000F22C478002C21D0174C246814F4E06482
:10497000D4F5E064240A2300D3F104042100D2B268
:104980001A4144788C4023008478144023431B014F
:1049900004780E4D6355047864110D4D0126077897
:1049A00017F01F07BE4045F8246009E00478641141
:1049B000084D0126077817F01F07BE4045F8246010
:1049C000F0BC70470000FA050CED00E000E400E0E8
:1049D00000E100E080E100E010B4002203681A006A
:1049E000394B1A400B68CC6823434C6923438C69CC
:1049F0002343CC6923430C6A23434C6A23438C6AC8
:104A000023434C6B23438C6B23431A43026043695B
:104A10001A00D208D200CB6A0C6B23431A434261BE
:104A20000B6943604B6883608B68C36010BC704740
:104A3000C9B2002904D0026852F00102026003E00A
:104A400002685208520002607047010000200A68A4
:104A5000D20702D50122100001E000221000C0B2EE
:104A6000704730B4020000200024164DAA4202D242
:104A7000164D2B0001E0164D2B008D0002D55D6810
:104A80002C0001E01D682C00124D2C400C4202D07D
:104A90000125280001E000252800C0B230BC704785
:104AA000084B984202D2094B1A0001E0084B1A0049
:104AB0008B0003D5074B0B40D36002E0054B0B4046
:104AC00093607047106402403F801CF00060024019
:104AD000006402407D0F7D0F1CB504000121012000
:104AE000FDF725FA4FF4D850009003208DF805000B
:104AF00002208DF8040000208DF8060000208DF8BB
:104B0000070000A92048FDF783FA0A2208211E4861
:104B1000FDF7EBFA0A2209211B48FDF7E6FA0A2203
:104B20000B211948FDF7E1FA0A220C211648FDF77E
:104B3000DCFA4FF48060009001208DF8060001201F
:104B40008DF8070003208DF8050000A90E48FDF739
:104B50005FFA0A220A210C48FDF7C7FA01214FF437
:104B60008040FDF711FA01218020FDF7EFF90121C6
:104B70005FF08050FDF717FA01210020FCF766FF77
:104B80000120FEF773FB13BD0000024010B582B098
:104B900004004FF4C060FFF7DBFE43208DF80000F7
:104BA00001208DF8010003208DF8020001208DF80E
:104BB000030000A8FFF7D1FE13BD0021782202FBFD
:104BC00000F20723B2FBF3F2491C8A4200D3FBE751
:104BD000704710B504004FF47A7000FB04F0FFF743
:104BE000ECFF10BD70B504000D00002668780028A9
:104BF00020D0012828D0032821D005280BD0062852
:104C000004D0082811D009280AD022E02900200069
:104C100000F007F921E02900200000F09DF91CE0D8
:104C20002900200000F0C8F917E02900200000F05A
:104C300026FA12E02900200000F045FA0DE02900D4
:104C4000200000F060FA08E02900200000F0AEFA31
:104C500003E02900200000F0E8FA3000C0B270BD87
:104C600070B504000D00002694F81201032817D136
:104C7000287902280FDA29002000D4F8E425926868
:104C80009047E88800280AD1F6B2002E07D120000C
:104C900000F03DFB03E02900200000F0C6FA03E02D
:104CA0002900200000F0C1FA3000C0B270BDF8B594
:104CB00004000D000027A88806006878002864D04A
:104CC000012832D0032840F0A98094F8120102286C
:104CD00002D003280CD023E0F6B2002E07D0F6B2A3
:104CE000802E04D03100C9B22000FEF769FE1BE01F
:104CF000688800280AD1F6B2002E07D0F6B2802EBE
:104D000004D03100C9B22000FEF75AFE290020006D
:104D1000D4F8E42592689047200000F0F8FA03E008
:104D20002900200000F081FA78E094F812010228AE
:104D300002D003280CD023E0F6B2002E07D0F6B242
:104D4000802E04D03100C9B22000FEF739FE1BE0EE
:104D50006888002813D1F6B2002E0DD0F6B2802E4E
:104D60000AD03100C9B22000FEF752FE290020000F
:104D7000D4F8E42592689047200000F0C8FA03E0D8
:104D80002900200000F051FA48E094F812010228AE
:104D900002D003280CD03CE0F6B2002E07D0F6B2C9
:104DA000802E04D03100C9B22000FEF709FE34E0A5
:104DB000F6B2300613D5F6B216F07F00282101FBBB
:104DC000004090F81E01002804D0DFF8CC03012138
:104DD000016017E0DFF8C0030021016012E0300637
:104DE00010D4F6B2282000FB064090F87603002885
:104DF00004D0DFF8A4030121016003E0DFF8980389
:104E0000002101600222DFF89013200000F049FA2F
:104E100003E02900200000F008FAFFE73800C0B2E4
:104E2000F2BD70B582B004000D00688880B2000A3F
:104E3000C0B2012808D0022818D0032822D00628A2
:104E400062D0072865D069E000A9A078D4F8EC25E5
:104E5000126890470600E888402803D094F81201B1
:104E6000012802D10820ADF800005CE000A9A0787C
:104E7000D4F8E425926A9047060002207070C4F8C6
:104E8000F06550E0A878002808D0022816D00DD38D
:104E9000042823D01AD3052828D02FE000A9A07811
:104EA000D4F8EC255268904706002CE000A9A078C1
:104EB000D4F8EC2592689047060024E000A9A07879
:104EC000D4F8EC25D268904706001CE000A9A07831
:104ED000D4F8EC2512699047060014E000A9A078E8
:104EE000D4F8EC255269904706000CE000A9A078A0
:104EF000D4F8EC2592699047060004E029002000D0
:104F000000F093F927E00EE02900200000F08DF971
:104F100021E02900200000F088F91CE02900200091
:104F200000F083F917E0BDF80000002813D0E888EE
:104F3000002810D0BDF80000E988884202D2BDF8F0
:104F4000000000E0E888ADF80000BDF80020310066
:104F5000200000F0A6F973BD70B504000D00A8880C
:104F6000002824D1E888002821D1A87810F07F00FB
:104F7000060094F81201032804D12900200000F053
:104F800054F918E084F814613100C9B22000FEF72A
:104F900079FD200000F0BBF9F6B2002E03D002200C
:104FA00084F8120107E0012084F8120103E02900CF
:104FB000200000F03AF970BD38B504000D00688893
:104FC0007649087075480078022804DB2900200023
:104FD00000F02BF952E094F81201022802D00328C5
:104FE00018D047E06D48007800280FD06B48007853
:104FF00084F81001032084F8120168480178200029
:10500000FFF778FC200000F082F902E0200000F0B9
:105010007EF933E06148007800280FD1022084F83F
:1050200012015E48007884F810015C480178200085
:10503000FFF770FC200000F06AF91AE0574800788A
:1050400094F81011884211D094F810112000FFF745
:1050500061FC5248007884F8100150480178200023
:10506000FFF748FC200000F052F902E0200000F0B9
:105070004EF903E02900200000F0D7F831BD38B523
:1050800004000D00E888012804D02900200000F069
:10509000CCF817E094F81201022802D0032806D0B9
:1050A0000CE001223E49200000F0FBF80AE001225A
:1050B00014F58871200000F0F4F803E029002000C6
:1050C00000F0B3F831BD38B504000D0094F81201BA
:1050D000801E012812D8334800210160D4F818013D
:1050E000002805D02F48006850F002002D490860C4
:1050F00002222C49200000F0D4F803E0290020000F
:1051000000F093F831BDF8B504000D000027688861
:1051100001280CD10120C4F8180129002000D4F87E
:10512000E42592689047200000F0F1F832E06888AA
:1051300002282FD1287900062CD12069406806006A
:10514000A88880B2000A0700FFB2012F07D019D348
:10515000032F0CD007D3052F11D00CD312E0012060
:1051600060F306160EE0022060F306160AE0032044
:1051700060F3061606E0042060F3061602E0052040
:1051800060F3061608480660012084F81601200026
:1051900000F0BDF8F1BD00005C0800207D08002093
:1051A00060080020640800204C08002038B5040086
:1051B0000D0094F81201801E01280FD8688801287C
:1051C0000BD10020C4F8180129002000D4F8E425F0
:1051D00092689047200000F09AF803E02900200030
:1051E00000F023F831BD90F8CC250A7090F8CD2559
:1051F0004A7090F8CE2590F8CF351B029A184A8055
:1052000090F8D02590F8D1351B029A188A8090F832
:10521000D22590F8D3351B029A18CA80CA88C0F8E4
:105220004021012280F81121704738B504000D009B
:1052300080212000FEF7C4FB00212000FEF7C0FB08
:105240002000FFF79EF931BDF8B504000D001600EF
:105250000027002C1AD0200000F019F84000801C14
:105260003080FFB2308878557F1CFFB2032078551C
:105270007F1C2078002809D0FFB220787855641C64
:105280007F1CFFB2002078557F1CF2E7F1BD0100C2
:1052900000200A78002A02D0401C491CF9E7C0B25D
:1052A0007047F8B504000D0016000027B6B2C4F828
:1052B0003C61B6B2C4F83861022084F81101B6B27C
:1052C00033002A0000212000FEF74BFB3800C0B25B
:1052D000F2BDF8B504000D0016000027B6B2330089
:1052E0002A0000212000FEF73CFB3800C0B2F2BDCE
:1052F000F8B504000D001600002733009BB22A0009
:1053000000212000FEF7FAFA3800C0B2F2BD38B52D
:1053100004000025042084F811010023002200214C
:105320002000FEF71EFB2000FFF72BF92800C0B27B
:1053300032BD38B504000025052084F81101002392
:10534000002200212000FEF7D9FA2000FFF719F90A
:105350002800C0B232BD010070B504000026200054
:10536000FEF787FD00286AD02000FEF78EFD0500BD
:10537000002D01D1002063E0C5F3C040002804D017
:10538000200000F048F930430600C5F380400028B3
:1053900004D0200000F0BEF830430600C5F3400002
:1053A000002805D00021080050F00200E1684861A3
:1053B000E80F002804D0200000F043F83043060036
:1053C000C5F3C020002804D0200000F060F830436E
:1053D0000600C5F3C000002804D0200000F087F9C3
:1053E00030430600C5F30010002804D0200000F070
:1053F0008DF930430600C5F30030002804D02000AA
:1054000000F023FA30430600C5F34030002804D0F2
:10541000200000F07DFA30430600C5F3005000285C
:1054200004D0200000F09BFA30430600C5F3405042
:10543000002804D0200000F0A1FA3043060030001C
:1054400070BDF8B50400A07A002809D0D4F80C018A
:10545000060036F0020676087600D4F80C010660E5
:105460000020070057F0010720694068B843216910
:1054700048602000DFF82415096889698847002002
:10548000050055F00045E06845610120F2BDF8B522
:10549000040000208DF8000094F812018DF800003F
:1054A0002000DFF8F8140968496988472069806896
:1054B00007000020050055F40065E0684561A07A0A
:1054C000002825D0F80723D594F8150101281FD10D
:1054D0009DF8000003281BD10020060056F00106AD
:1054E000D4F80C0100683043D4F80C11086056F071
:1054F0000206D4F80C0100683043D4F80C1108609F
:10550000DFF89C04006850F00600DFF8941408608F
:105510000120F2BD2DE9F041040000270020050024
:105520002000FFF725F80600002E71D0F0076CD59B
:105530003900C9B2200000F035FA0500E80724D58B
:105540000120B84080462069406B30EA080021699C
:1055500048630020050055F0010514EB87008069C1
:1055600085603900C9B22000DFF830241268526823
:105570009047E078012808D1002F06D194F8110156
:10558000042802D12000FEF7FCFFC5F3C00000286C
:1055900007D00020050055F0080514EB870080694E
:1055A0008560C5F30010002807D00020050055F0E5
:1055B000100514EB870080698560C5F38010002812
:1055C00007D00020050055F0400514EB87008069E6
:1055D0008560C5F34000002807D00020050055F085
:1055E000020514EB870080698560C5F3C0100028B0
:1055F0000BD03900200000F0D8F80020050055F04D
:10560000800514EB8700806985607F1C76088BE736
:105610000120BDE8F0812DE9F04104005FF00008B1
:10562000002006002000FEF78FFF0500002D5BD054
:10563000E80755D54146C9B22000FEF78EFF0600A7
:10564000F00730D50020060056F0010614EB880064
:10565000406D8660E078012811D114EB8800406D20
:1056600000690700282000FB0840D0F87C0379037C
:10567000490B401A282101FB0841C1F88C0341461F
:10568000C9B22000C54A126812689047E078012824
:1056900009D1B8F1000F06D194F81101052802D103
:1056A0002000FEF76EFFC6F34000002807D0002060
:1056B000060056F0020614EB8800406D8660C6F3C3
:1056C000C00000280CD02000B449096889688847C8
:1056D0000020060056F0080614EB8800406D866036
:1056E00018F101086D08A1E70120BDE8F08138B587
:1056F00004002000A9490968C968884700200500FE
:1057000055F00805E0684561012032BDF8B5040098
:105710000020070057F01007E0688069B843E1688F
:105720008861E068006A050015F00F00282101FB80
:10573000004010F55D700600680C10F00F000128A5
:1057400008D0022807D003281AD0042819D0062828
:1057500018D023E022E02809400510D0C5F30A1232
:1057600092B2F1682000FEF70CFAC5F30A10F16856
:105770004018F060B069C5F30A110818B0610DE077
:105780000CE00BE0082204F2CC512000FEF7F9F9FE
:10579000B069C5F30A110818B061FFE7E0688069D5
:1057A0003843E16888610120F2BD2DE9F843040027
:1057B0000D005FF0000800200600282000FB0540D7
:1057C00010F58E7007007869B969401A8046B8688C
:1057D000404501D2B868804618F103008008814630
:1057E00014EB8500806980690600B0B2814529D23A
:1057F000B8697969884225D27869002822D0786909
:10580000B969401A8046B868404501D2B8688046F8
:1058100018F103008008814643469BB22A00D2B2A9
:10582000F9682000FEF789F9F86818EB0000F860C5
:10583000B86918EB0000B86114EB850080698069D5
:105840000600D2E70120BDE8F2832DE9F84F0400FD
:1058500000208146002005000020060000200700EF
:10586000002080460020824659F0010920694068E6
:1058700030EA09002169486000212000FEF78DFA16
:1058800000208346607883450CD214EB8B0080693E
:10589000FF21816014EB8B00406DFF2181601BF1C3
:1058A000010BEFE720695FF0FF318161012060F3B8
:1058B0000F05012060F31F452069C56156F00806F9
:1058C00056F0010656F002062069466157F00107BE
:1058D00057F0080757F00207206907612069006840
:1058E000804638F4FE682069C0F800802000FEF78A
:1058F00048FE002082465AF4805AE068C0F814A09E
:10590000200026490968096988470120BDE8F28F0F
:1059100070B504002000FEF7E2FBE068C0680600F6
:105920002000FEF7C2FB032808D10020A0704FF42E
:105930000070A080092060F38D2606E00120A07091
:105940004020A080052060F38D26E068C66000201E
:10595000050055F40055E0684561012070BD38B57B
:1059600004000020050020000C490968C969884727
:1059700055F48015E0684561012032BD38B504005A
:1059800000200500200005490968096A884755F488
:105990000015E0684561012032BD00007001002063
:1059A00010ED00E030B4020015692D692C00156976
:1059B0006D6B2B0033FA01F515F0010554EAC5149F
:1059C000C9B212EB8105AD69AD682540280030BC35
:1059D000704701007047FEE7FEE7FEE7FEE770470D
:1059E0007047704770B50026FBF796FF9A4800781D
:1059F000002802D1FBF790FFD4E000F0F6F8040095
:105A00006078002802D1A078002804D00422210068
:105A1000924800F0C2F992480078401C9049087002
:105A20008F4800780A2840F0BD808E480021017020
:105A30008D4800210170002200218C48FDF79AFE5C
:105A4000002204218948FDF795FE0022082187489D
:105A5000FDF790FE00220C218448FDF78BFE814B60
:105A6000062229213220FBF7E2F97E48007880499E
:105A700091F90010401A7B4908707B4B06222B21BC
:105A80003220FBF7D4F9784800787A4991F9001070
:105A9000401A75490870734890F9000040B2002818
:105AA00005D5704890F9000040B2454201E06D48CC
:105AB00005786D4890F9000040B2002805D56A4885
:105AC00090F9000040B2464201E067480678EDB226
:105AD000F6B2B54201D2300000E0280066490870F5
